{
	"contracts/suma.sol": {
		"Suma": {
			"abi": [
				{
					"inputs": [
						{
							"internalType": "int256",
							"name": "numero1",
							"type": "int256"
						},
						{
							"internalType": "int256",
							"name": "numero2",
							"type": "int256"
						}
					],
					"name": "sumar",
					"outputs": [
						{
							"internalType": "int256",
							"name": "",
							"type": "int256"
						}
					],
					"stateMutability": "pure",
					"type": "function"
				}
			],
			"devdoc": {
				"kind": "dev",
				"methods": {},
				"version": 1
			},
			"evm": {
				"assembly": "    /* \"contracts/suma.sol\":93:226  contract Suma {\r... */\n  mstore(0x40, 0x80)\n  callvalue\n  dup1\n  iszero\n  tag_1\n  jumpi\n  0x00\n  dup1\n  revert\ntag_1:\n  pop\n  dataSize(sub_0)\n  dup1\n  dataOffset(sub_0)\n  0x00\n  codecopy\n  0x00\n  return\nstop\n\nsub_0: assembly {\n        /* \"contracts/suma.sol\":93:226  contract Suma {\r... */\n      mstore(0x40, 0x80)\n      callvalue\n      dup1\n      iszero\n      tag_1\n      jumpi\n      0x00\n      dup1\n      revert\n    tag_1:\n      pop\n      jumpi(tag_2, lt(calldatasize, 0x04))\n      shr(0xe0, calldataload(0x00))\n      dup1\n      0x26973331\n      eq\n      tag_3\n      jumpi\n    tag_2:\n      0x00\n      dup1\n      revert\n        /* \"contracts/suma.sol\":114:223  function sumar(int numero1, int numero2) public pure returns (int){\r... */\n    tag_3:\n      tag_4\n      0x04\n      dup1\n      calldatasize\n      sub\n      dup2\n      add\n      swap1\n      tag_5\n      swap2\n      swap1\n      tag_6\n      jump\t// in\n    tag_5:\n      tag_7\n      jump\t// in\n    tag_4:\n      mload(0x40)\n      tag_8\n      swap2\n      swap1\n      tag_9\n      jump\t// in\n    tag_8:\n      mload(0x40)\n      dup1\n      swap2\n      sub\n      swap1\n      return\n    tag_7:\n        /* \"contracts/suma.sol\":176:179  int */\n      0x00\n        /* \"contracts/suma.sol\":208:215  numero2 */\n      dup2\n        /* \"contracts/suma.sol\":198:205  numero1 */\n      dup4\n        /* \"contracts/suma.sol\":198:215  numero1 + numero2 */\n      tag_11\n      swap2\n      swap1\n      tag_12\n      jump\t// in\n    tag_11:\n        /* \"contracts/suma.sol\":191:215  return numero1 + numero2 */\n      swap1\n      pop\n        /* \"contracts/suma.sol\":114:223  function sumar(int numero1, int numero2) public pure returns (int){\r... */\n      swap3\n      swap2\n      pop\n      pop\n      jump\t// out\n        /* \"#utility.yul\":7:144   */\n    tag_14:\n        /* \"#utility.yul\":52:57   */\n      0x00\n        /* \"#utility.yul\":90:96   */\n      dup2\n        /* \"#utility.yul\":77:97   */\n      calldataload\n        /* \"#utility.yul\":68:97   */\n      swap1\n      pop\n        /* \"#utility.yul\":106:138   */\n      tag_16\n        /* \"#utility.yul\":132:137   */\n      dup2\n        /* \"#utility.yul\":106:138   */\n      tag_17\n      jump\t// in\n    tag_16:\n        /* \"#utility.yul\":7:144   */\n      swap3\n      swap2\n      pop\n      pop\n      jump\t// out\n        /* \"#utility.yul\":150:620   */\n    tag_6:\n        /* \"#utility.yul\":216:222   */\n      0x00\n        /* \"#utility.yul\":224:230   */\n      dup1\n        /* \"#utility.yul\":273:275   */\n      0x40\n        /* \"#utility.yul\":261:270   */\n      dup4\n        /* \"#utility.yul\":252:259   */\n      dup6\n        /* \"#utility.yul\":248:271   */\n      sub\n        /* \"#utility.yul\":244:276   */\n      slt\n        /* \"#utility.yul\":241:360   */\n      iszero\n      tag_19\n      jumpi\n        /* \"#utility.yul\":279:358   */\n      tag_20\n      tag_21\n      jump\t// in\n    tag_20:\n        /* \"#utility.yul\":241:360   */\n    tag_19:\n        /* \"#utility.yul\":399:400   */\n      0x00\n        /* \"#utility.yul\":424:476   */\n      tag_22\n        /* \"#utility.yul\":468:475   */\n      dup6\n        /* \"#utility.yul\":459:465   */\n      dup3\n        /* \"#utility.yul\":448:457   */\n      dup7\n        /* \"#utility.yul\":444:466   */\n      add\n        /* \"#utility.yul\":424:476   */\n      tag_14\n      jump\t// in\n    tag_22:\n        /* \"#utility.yul\":414:476   */\n      swap3\n      pop\n        /* \"#utility.yul\":370:486   */\n      pop\n        /* \"#utility.yul\":525:527   */\n      0x20\n        /* \"#utility.yul\":551:603   */\n      tag_23\n        /* \"#utility.yul\":595:602   */\n      dup6\n        /* \"#utility.yul\":586:592   */\n      dup3\n        /* \"#utility.yul\":575:584   */\n      dup7\n        /* \"#utility.yul\":571:593   */\n      add\n        /* \"#utility.yul\":551:603   */\n      tag_14\n      jump\t// in\n    tag_23:\n        /* \"#utility.yul\":541:603   */\n      swap2\n      pop\n        /* \"#utility.yul\":496:613   */\n      pop\n        /* \"#utility.yul\":150:620   */\n      swap3\n      pop\n      swap3\n      swap1\n      pop\n      jump\t// out\n        /* \"#utility.yul\":626:741   */\n    tag_24:\n        /* \"#utility.yul\":711:734   */\n      tag_26\n        /* \"#utility.yul\":728:733   */\n      dup2\n        /* \"#utility.yul\":711:734   */\n      tag_27\n      jump\t// in\n    tag_26:\n        /* \"#utility.yul\":706:709   */\n      dup3\n        /* \"#utility.yul\":699:735   */\n      mstore\n        /* \"#utility.yul\":626:741   */\n      pop\n      pop\n      jump\t// out\n        /* \"#utility.yul\":747:965   */\n    tag_9:\n        /* \"#utility.yul\":838:842   */\n      0x00\n        /* \"#utility.yul\":876:878   */\n      0x20\n        /* \"#utility.yul\":865:874   */\n      dup3\n        /* \"#utility.yul\":861:879   */\n      add\n        /* \"#utility.yul\":853:879   */\n      swap1\n      pop\n        /* \"#utility.yul\":889:958   */\n      tag_29\n        /* \"#utility.yul\":955:956   */\n      0x00\n        /* \"#utility.yul\":944:953   */\n      dup4\n        /* \"#utility.yul\":940:957   */\n      add\n        /* \"#utility.yul\":931:937   */\n      dup5\n        /* \"#utility.yul\":889:958   */\n      tag_24\n      jump\t// in\n    tag_29:\n        /* \"#utility.yul\":747:965   */\n      swap3\n      swap2\n      pop\n      pop\n      jump\t// out\n        /* \"#utility.yul\":1052:1577   */\n    tag_12:\n        /* \"#utility.yul\":1091:1094   */\n      0x00\n        /* \"#utility.yul\":1110:1129   */\n      tag_33\n        /* \"#utility.yul\":1127:1128   */\n      dup3\n        /* \"#utility.yul\":1110:1129   */\n      tag_27\n      jump\t// in\n    tag_33:\n        /* \"#utility.yul\":1105:1129   */\n      swap2\n      pop\n        /* \"#utility.yul\":1143:1162   */\n      tag_34\n        /* \"#utility.yul\":1160:1161   */\n      dup4\n        /* \"#utility.yul\":1143:1162   */\n      tag_27\n      jump\t// in\n    tag_34:\n        /* \"#utility.yul\":1138:1162   */\n      swap3\n      pop\n        /* \"#utility.yul\":1331:1332   */\n      dup2\n        /* \"#utility.yul\":1263:1329   */\n      0x7fffffffffffffffffffffffffffffffffffffffffffffffffffffffffffffff\n        /* \"#utility.yul\":1259:1333   */\n      sub\n        /* \"#utility.yul\":1256:1257   */\n      dup4\n        /* \"#utility.yul\":1252:1334   */\n      sgt\n        /* \"#utility.yul\":1247:1248   */\n      0x00\n        /* \"#utility.yul\":1244:1245   */\n      dup4\n        /* \"#utility.yul\":1240:1249   */\n      slt\n        /* \"#utility.yul\":1233:1250   */\n      iszero\n        /* \"#utility.yul\":1229:1335   */\n      and\n        /* \"#utility.yul\":1226:1358   */\n      iszero\n      tag_35\n      jumpi\n        /* \"#utility.yul\":1338:1356   */\n      tag_36\n      tag_37\n      jump\t// in\n    tag_36:\n        /* \"#utility.yul\":1226:1358   */\n    tag_35:\n        /* \"#utility.yul\":1518:1519   */\n      dup2\n        /* \"#utility.yul\":1450:1516   */\n      0x8000000000000000000000000000000000000000000000000000000000000000\n        /* \"#utility.yul\":1446:1520   */\n      sub\n        /* \"#utility.yul\":1443:1444   */\n      dup4\n        /* \"#utility.yul\":1439:1521   */\n      slt\n        /* \"#utility.yul\":1435:1436   */\n      0x00\n        /* \"#utility.yul\":1432:1433   */\n      dup4\n        /* \"#utility.yul\":1428:1437   */\n      slt\n        /* \"#utility.yul\":1424:1522   */\n      and\n        /* \"#utility.yul\":1421:1545   */\n      iszero\n      tag_38\n      jumpi\n        /* \"#utility.yul\":1525:1543   */\n      tag_39\n      tag_37\n      jump\t// in\n    tag_39:\n        /* \"#utility.yul\":1421:1545   */\n    tag_38:\n        /* \"#utility.yul\":1569:1570   */\n      dup3\n        /* \"#utility.yul\":1566:1567   */\n      dup3\n        /* \"#utility.yul\":1562:1571   */\n      add\n        /* \"#utility.yul\":1555:1571   */\n      swap1\n      pop\n        /* \"#utility.yul\":1052:1577   */\n      swap3\n      swap2\n      pop\n      pop\n      jump\t// out\n        /* \"#utility.yul\":1583:1659   */\n    tag_27:\n        /* \"#utility.yul\":1619:1626   */\n      0x00\n        /* \"#utility.yul\":1648:1653   */\n      dup2\n        /* \"#utility.yul\":1637:1653   */\n      swap1\n      pop\n        /* \"#utility.yul\":1583:1659   */\n      swap2\n      swap1\n      pop\n      jump\t// out\n        /* \"#utility.yul\":1665:1845   */\n    tag_37:\n        /* \"#utility.yul\":1713:1790   */\n      0x4e487b7100000000000000000000000000000000000000000000000000000000\n        /* \"#utility.yul\":1710:1711   */\n      0x00\n        /* \"#utility.yul\":1703:1791   */\n      mstore\n        /* \"#utility.yul\":1810:1814   */\n      0x11\n        /* \"#utility.yul\":1807:1808   */\n      0x04\n        /* \"#utility.yul\":1800:1815   */\n      mstore\n        /* \"#utility.yul\":1834:1838   */\n      0x24\n        /* \"#utility.yul\":1831:1832   */\n      0x00\n        /* \"#utility.yul\":1824:1839   */\n      revert\n        /* \"#utility.yul\":1974:2091   */\n    tag_21:\n        /* \"#utility.yul\":2083:2084   */\n      0x00\n        /* \"#utility.yul\":2080:2081   */\n      dup1\n        /* \"#utility.yul\":2073:2085   */\n      revert\n        /* \"#utility.yul\":2097:2217   */\n    tag_17:\n        /* \"#utility.yul\":2169:2192   */\n      tag_46\n        /* \"#utility.yul\":2186:2191   */\n      dup2\n        /* \"#utility.yul\":2169:2192   */\n      tag_27\n      jump\t// in\n    tag_46:\n        /* \"#utility.yul\":2162:2167   */\n      dup2\n        /* \"#utility.yul\":2159:2193   */\n      eq\n        /* \"#utility.yul\":2149:2211   */\n      tag_47\n      jumpi\n        /* \"#utility.yul\":2207:2208   */\n      0x00\n        /* \"#utility.yul\":2204:2205   */\n      dup1\n        /* \"#utility.yul\":2197:2209   */\n      revert\n        /* \"#utility.yul\":2149:2211   */\n    tag_47:\n        /* \"#utility.yul\":2097:2217   */\n      pop\n      jump\t// out\n\n    auxdata: 0xa2646970667358221220b769eaf7565044f6e8d3a760b3f6e310e485847673193827693bc84824d72b5964736f6c63430008070033\n}\n",
				"bytecode": {
					"linkReferences": {},
					"object": "608060405234801561001057600080fd5b50610214806100206000396000f3fe608060405234801561001057600080fd5b506004361061002b5760003560e01c80632697333114610030575b600080fd5b61004a6004803603810190610045919061008b565b610060565b60405161005791906100da565b60405180910390f35b6000818361006e91906100f5565b905092915050565b600081359050610085816101c7565b92915050565b600080604083850312156100a2576100a16101c2565b5b60006100b085828601610076565b92505060206100c185828601610076565b9150509250929050565b6100d481610189565b82525050565b60006020820190506100ef60008301846100cb565b92915050565b600061010082610189565b915061010b83610189565b9250817f7fffffffffffffffffffffffffffffffffffffffffffffffffffffffffffffff0383136000831215161561014657610145610193565b5b817f800000000000000000000000000000000000000000000000000000000000000003831260008312161561017e5761017d610193565b5b828201905092915050565b6000819050919050565b7f4e487b7100000000000000000000000000000000000000000000000000000000600052601160045260246000fd5b600080fd5b6101d081610189565b81146101db57600080fd5b5056fea2646970667358221220b769eaf7565044f6e8d3a760b3f6e310e485847673193827693bc84824d72b5964736f6c63430008070033",
					"opcodes": "PUSH1 0x80 PUSH1 0x40 MSTORE CALLVALUE DUP1 ISZERO PUSH2 0x10 JUMPI PUSH1 0x0 DUP1 REVERT JUMPDEST POP PUSH2 0x214 DUP1 PUSH2 0x20 PUSH1 0x0 CODECOPY PUSH1 0x0 RETURN INVALID PUSH1 0x80 PUSH1 0x40 MSTORE CALLVALUE DUP1 ISZERO PUSH2 0x10 JUMPI PUSH1 0x0 DUP1 REVERT JUMPDEST POP PUSH1 0x4 CALLDATASIZE LT PUSH2 0x2B JUMPI PUSH1 0x0 CALLDATALOAD PUSH1 0xE0 SHR DUP1 PUSH4 0x26973331 EQ PUSH2 0x30 JUMPI JUMPDEST PUSH1 0x0 DUP1 REVERT JUMPDEST PUSH2 0x4A PUSH1 0x4 DUP1 CALLDATASIZE SUB DUP2 ADD SWAP1 PUSH2 0x45 SWAP2 SWAP1 PUSH2 0x8B JUMP JUMPDEST PUSH2 0x60 JUMP JUMPDEST PUSH1 0x40 MLOAD PUSH2 0x57 SWAP2 SWAP1 PUSH2 0xDA JUMP JUMPDEST PUSH1 0x40 MLOAD DUP1 SWAP2 SUB SWAP1 RETURN JUMPDEST PUSH1 0x0 DUP2 DUP4 PUSH2 0x6E SWAP2 SWAP1 PUSH2 0xF5 JUMP JUMPDEST SWAP1 POP SWAP3 SWAP2 POP POP JUMP JUMPDEST PUSH1 0x0 DUP2 CALLDATALOAD SWAP1 POP PUSH2 0x85 DUP2 PUSH2 0x1C7 JUMP JUMPDEST SWAP3 SWAP2 POP POP JUMP JUMPDEST PUSH1 0x0 DUP1 PUSH1 0x40 DUP4 DUP6 SUB SLT ISZERO PUSH2 0xA2 JUMPI PUSH2 0xA1 PUSH2 0x1C2 JUMP JUMPDEST JUMPDEST PUSH1 0x0 PUSH2 0xB0 DUP6 DUP3 DUP7 ADD PUSH2 0x76 JUMP JUMPDEST SWAP3 POP POP PUSH1 0x20 PUSH2 0xC1 DUP6 DUP3 DUP7 ADD PUSH2 0x76 JUMP JUMPDEST SWAP2 POP POP SWAP3 POP SWAP3 SWAP1 POP JUMP JUMPDEST PUSH2 0xD4 DUP2 PUSH2 0x189 JUMP JUMPDEST DUP3 MSTORE POP POP JUMP JUMPDEST PUSH1 0x0 PUSH1 0x20 DUP3 ADD SWAP1 POP PUSH2 0xEF PUSH1 0x0 DUP4 ADD DUP5 PUSH2 0xCB JUMP JUMPDEST SWAP3 SWAP2 POP POP JUMP JUMPDEST PUSH1 0x0 PUSH2 0x100 DUP3 PUSH2 0x189 JUMP JUMPDEST SWAP2 POP PUSH2 0x10B DUP4 PUSH2 0x189 JUMP JUMPDEST SWAP3 POP DUP2 PUSH32 0x7FFFFFFFFFFFFFFFFFFFFFFFFFFFFFFFFFFFFFFFFFFFFFFFFFFFFFFFFFFFFFFF SUB DUP4 SGT PUSH1 0x0 DUP4 SLT ISZERO AND ISZERO PUSH2 0x146 JUMPI PUSH2 0x145 PUSH2 0x193 JUMP JUMPDEST JUMPDEST DUP2 PUSH32 0x8000000000000000000000000000000000000000000000000000000000000000 SUB DUP4 SLT PUSH1 0x0 DUP4 SLT AND ISZERO PUSH2 0x17E JUMPI PUSH2 0x17D PUSH2 0x193 JUMP JUMPDEST JUMPDEST DUP3 DUP3 ADD SWAP1 POP SWAP3 SWAP2 POP POP JUMP JUMPDEST PUSH1 0x0 DUP2 SWAP1 POP SWAP2 SWAP1 POP JUMP JUMPDEST PUSH32 0x4E487B7100000000000000000000000000000000000000000000000000000000 PUSH1 0x0 MSTORE PUSH1 0x11 PUSH1 0x4 MSTORE PUSH1 0x24 PUSH1 0x0 REVERT JUMPDEST PUSH1 0x0 DUP1 REVERT JUMPDEST PUSH2 0x1D0 DUP2 PUSH2 0x189 JUMP JUMPDEST DUP2 EQ PUSH2 0x1DB JUMPI PUSH1 0x0 DUP1 REVERT JUMPDEST POP JUMP INVALID LOG2 PUSH5 0x6970667358 0x22 SLT KECCAK256 0xB7 PUSH10 0xEAF7565044F6E8D3A760 0xB3 0xF6 0xE3 LT 0xE4 DUP6 DUP5 PUSH23 0x73193827693BC84824D72B5964736F6C63430008070033 "
				},
				"gasEstimates": {
					"creation": {
						"codeDepositCost": "106400",
						"executionCost": "153",
						"totalCost": "106553"
					},
					"external": {
						"sumar(int256,int256)": "infinite"
					}
				},
				"methodIdentifiers": {
					"sumar(int256,int256)": "26973331"
				}
			},
			"storageLayout": {
				"storage": [],
				"types": null
			},
			"userdoc": {
				"kind": "user",
				"methods": {},
				"version": 1
			}
		}
	}
}